:020000040800F2
:10000000800A0020A1010008A91C0008311A00087C
:10001000A51C0008B50200085125000800000000DA
:100020000000000000000000000000002D1F00087C
:10003000B902000800000000D91C0008311F0008A8
:10004000BB010008BB010008BB010008BB010008A0
:10005000BB010008BB010008BB010008BB01000890
:10006000BB010008BB010008BB010008BB01000880
:10007000BB010008BB010008BB010008BB01000870
:10008000BB010008BB010008BB010008BB01000860
:10009000BB010008BB010008BB010008BB01000850
:1000A000BB010008BB010008BB010008BB01000840
:1000B000BB0100080000000000000000BB010008B8
:1000C000BB010008BB010008BB010008BB01000820
:1000D000BB010008BB010008BB010008BB01000810
:1000E000BB010008BB010008000000000000000088
:1000F0000000000000000000000000000000000000
:1001000000000000BB01000800000000BB01000867
:100110000000000000000000B51F0008BB0100083F
:10012000BB010008BB010008BB010008BB010008BF
:10013000BB010008000000000000000000000000FB
:10014000BB010008BB010008BB0100080000000063
:10015000BB010008BB010008BB010008BB0100088F
:10016000BB010008BB010008BB0100080000000043
:10017000BB010008BB0100080000000000000000F7
:10018000BB010008BB010008BB010008DFF80CD070
:1001900000F07EF800480047C9250008800A0020CA
:1001A0000648804706480047FEE7FEE7FEE7FEE711
:1001B000FEE7FEE7FEE7FEE7FEE7FEE7A11F000819
:1001C0008D0100082DE9F05F0546002092469B4610
:1001D00088460646814640241BE02846414647465D
:1001E000224600F044F853465A46C01A914110D3B3
:1001F00011461846224600F02BF82D1A67EB01082D
:100200004F4622460120002100F022F817EB00099A
:100210004E41201EA4F10104DFDC484631462A4647
:10022000434600F000B830BCBDE8C09FD2B201E048
:1002300000F8012B491EFBD270470022F6E710B5EB
:1002400013460A4604461946FFF7F0FF204610BD44
:10025000202A04DB203A00FA02F100207047914086
:10026000C2F1200320FA03F3194390407047202A7B
:1002700004DB203A21FA02F00021704721FA02F350
:10028000D040C2F120029140084319467047000057
:10029000064C074D06E0E06840F0010394E80700D3
:1002A00098471034AC42F6D3FFF774FF502600088D
:1002B00070260008FEE700007047000072B600BF1D
:1002C000FEE700002DE9F04F83B00D68002D00F02F
:1002D000C58000F138424FEAB22241F20007019294
:1002E000C4F600070722002600244FF0010AB84296
:1002F00008BF0422009209E00D68043435FA0AF2BE
:100300000AF1010A06F1020600F0A880AAF1010C28
:10031000012202FA0CFB15EA0B09EDD0D1F804809A
:1003200008F00305A5F1010EBEF1010F11D8876891
:100330000322CB68B24027EA0202B3401A4382602C
:100340004268C8F3001322EA0B0203FA0CF31A43C3
:100350004260032D1CD0C26803238F68B3409A43C8
:1003600007FA06F31A43022DC26011D16FF003029F
:1003700002EA5C02024404F01C070F23D2F820E0DA
:1003800003FA07F50B692EEA0505BB402B43136200
:10039000026803234F68B3409A4307F00303B34056
:1003A0001A4317F4403F0260A6D041F26003C4F242
:1003B00002031A6840F2004E42F001021A601A6805
:1003C000C4F2010E02F001020292029A2CF0030222
:1003D0004FF608487244CFF6FF7852F8083004F020
:1003E0000C070F25BD4023EA050C019B009D042B43
:1003F00038BF1D4605FA07F747EA0C0342F80830F4
:10040000DEF808204B6842EA090740F20C4CDD0296
:1004100058BF22EA0907CEF80870C4F2010CDCF8D4
:1004200000209D0242EA090758BF22EA0907CCF8DA
:100430000070DEF804209D0342EA090758BF22EA53
:100440000907CEF80470DEF80020DB0342EA090752
:1004500058BF22EA0907CEF800704DE703B000F05C
:1004600000B830BCBDE8C08F1823002A08BF28237D
:10047000C150704740F27820C2F200000068704717
:10048000426C202A02D1026C012A01D1022070475D
:10049000242242640268136823F001031360136886
:1004A00023F480531360136819431160116841F0FD
:1004B0000101116020214164002101640846704758
:1004C000426C202A02D1026C012A01D1022070471D
:1004D000242242640268136823F001031360136846
:1004E00023F4706343EA01211160116841F00101B6
:1004F000116020214164002101640846704700001A
:10050000002804BF0120704710B50446406C20B994
:1005100000202064204600F041F82420606494E824
:100520000310E368026821F0706122F001020260AA
:1005300001618168012B21F4004181604FF4044185
:1005400008BF4FF4004141EA0C0181604168022B71
:1005500021F4006108BF01F500614160416804F1C8
:10056000100341F0007141F400414160C16821F481
:100570000041C1600ECB114341EA0321C160D4E9BF
:10058000071211430160016841F001010160002080
:100590002021E06461642063A06410BDB0B59EB00A
:1005A0000446002502A85C211D95CDE91B55CDE927
:1005B0001955FFF742FE206845F60001C4F200011C
:1005C000884237D045F20041C4F20001884263D12D
:1005D00040200290002402A80E9400F0FDF90028AB
:1005E00018BFFFF76BFE41F24C05C4F20205286804
:1005F00019A940F001002860286800F0010001906E
:1006000001984FF4C06019901220CDE91A0403201C
:100610001C9004201D904FF09040FFF753FEE868B7
:1006200040F40010E860E86800F4001001900198C0
:100630001EB0B0BD8020029002A80F9500F0CCF94A
:10064000002818BFFFF73AFE41F24C04C4F202043E
:10065000206819A940F002002060206800F0020024
:10066000019001984FF4C040199012201A90002078
:100670001B9003201C9004201D9040F20040C4F603
:100680000000FFF71FFEE06840F48000E060E068D3
:1006900000F48000019001981EB0B0BD40F204004B
:1006A00040F27821C2F20000C2F2000100680A683C
:1006B000104408607047000080B5032000F092F8F5
:1006C0000F2000F009F800281CBF012080BD00F0B9
:1006D0005BF8002080BD0000B0B586B041F2580143
:1006E000C4F202010A68044642F010020A60096876
:1006F00001A801F0100101910199694600F0BCFBCD
:10070000049D002D18BF012500F0DEFB4DF683612E
:10071000A840C4F21B31A0FB01014FF0FF3000EBF9
:10072000914140F2801041F20002C2F20000C4F296
:10073000000240F2E7330025C0E90021C0E902537E
:100740000561856100F0E2FF0546C8B940F28010FE
:10075000C2F2000000F0FEFF054688B9362000F026
:100760002DF80F2C0BD8362021460022002500F052
:1007700029F840F20800C2F20000046000E0012500
:10078000284606B0B0BD000082B041F25800C4F265
:100790000200816841F001018160816801F001017E
:1007A00001910199016841F080510160006800F0F9
:1007B00080500090009802B07047000080B501F0B2
:1007C000C9FE80BD70B514460D46064601F0D2FE46
:1007D0002946224601F06AFA0146304601F0D2FE6F
:1007E00070BD000080B501F0DFFE80BD47F2000162
:1007F000C4F200010A68B0F5007F02F4C06026D19F
:10080000B0F5007F21D00868012262F34A20086019
:1008100040F20000C2F200000068322358434DF657
:100820008363C4F21B33A0FB030302EB934000BFBE
:100830004B69421E824203D213F480601046F7D106
:100840004869400544BF0320704700207047B0F559
:10085000806FFAD00868022262F34A200860002004
:100860007047000047F20000C4F20000006800F486
:10087000C06070472DE9F04182B00446FFF7FAFDF1
:10088000002C4ED00646606C48B9002020642046FB
:1008900000F04CF8204641F2883100F09BF82068C7
:1008A000A168E26C03686FF0FF0523F4706305EB49
:1008B0000121194301600092204620210022334685
:1008C0004FF0000801F00AFA30BBD4E90012D4E975
:1008D000033C0E684FF62F75C0F2FF052E40D4E999
:1008E0000757334343EA02622A433A430A604A689D
:1008F0004FF6FE03CFF6E0731A40D4E905371A43EA
:1009000042EA0C423A434A600A6842F001020A6035
:100910000121C4F848806164C4F8408002B0BDE899
:10092000F081012002B0BDE8F08100002DE9F04126
:1009300086B0006841F20001CAF200010025884239
:10094000CDE90455CDE90255019502D006B0BDE8C8
:10095000F08141F24C00C4F20200416801AC41F464
:100960008071416041684FF0020801F4807100918C
:1009700000990168032741F00101016001680A261E
:1009800001F0010100910099016841F0020101604C
:100990000068214600F0020000900098C8200190F5
:1009A0004FF09040CDE9028504970596FFF78AFC49
:1009B00040F60300CDE9010840F20040C4F6000013
:1009C0002146CDE903570596FFF77CFC06B0BDE84C
:1009D000F0810000C16470472DE9F04782B0044601
:1009E000407841F2880A0007C4F2020A2FD5606CF1
:1009F00088B1B0F5400F17D0B0F5000F1AD15AF8F2
:100A00007C0C4FF0000940F480304AF87C0CB9F1BE
:100A1000000F1ED113E0201D002101F093F9814643
:100A2000B9F1000F15D10AE04FF00009B9F1000F3C
:100A30000FD104E04FF00109B9F1000F09D1DAF844
:100A40000000616C20F440000843CAF800004FF039
:100A50000009A078800701D44D4676E05AF8300CA2
:100A600010F080580BD15AF8300C40F080504AF802
:100A7000300C5AF8300C00F080500190019847F289
:100A80000006C4F20006306840F480703060FFF762
:100A9000F1FC05463068C00508D4FFF7EBFC401BAD
:100AA0000328F7D30325002D46D102E04D46002D43
:100AB00042D1DAF8080010F440701AD0A16D8842D3
:100AC00011D0DAF80800DAF8081020F4407041F488
:100AD0008031CAF80810DAF8081021F48031CAF819
:100AE0000810CAF80800C00706D100250126D6B9AB
:100AF00022E00020C007F8D0FFF7BCFC054641F219
:100B0000893700BFDAF8080010F0020606D1FFF7B7
:100B1000B1FC401BB842F5D3032500E00025002EB0
:100B200018BF012646B1DAF80800A16D20F4407024
:100B300008434D46CAF80800B8F1000F05D15AF82D
:100B4000300C20F080504AF8300C2068C10712D1D8
:100B500081071AD4410722D481062AD4810532D4D0
:100B600041053AD4410642D401064AD4C10552D4C3
:100B700000035AD475E0DAF80010226A21F003016C
:100B80001143CAF800108107E4D5DAF80010626A50
:100B900021F00C011143CAF800104107DCD5DAF846
:100BA0000010A26A21F030011143CAF8001081063A
:100BB000D4D5DAF80010E26A21F440611143CAF892
:100BC00000108105CCD5DAF80010E26B21F4402149
:100BD0001143CAF800104105C4D5DAF80010226CA0
:100BE00021F440111143CAF800104106BCD5DAF8CF
:100BF0000010226B21F440511143CAF80010010685
:100C0000B4D5DAF80010626B21F440411143CAF800
:100C10000010C105ACD5DAF80010A26B21F4403108
:100C20001143CAF8001000031BD5DAF80010A06CBD
:100C300021F040610143B0F1806FCAF8001009D083
:100C4000B0F1006F0DD15AF87C0C40F480104AF8D6
:100C50007C0C06E0201D012101F074F8002818BF6B
:100C60000546A07840071BD5DAF80010E06C21F0AB
:100C700040610143B0F1806FCAF8001009D0B0F1B3
:100C8000006F0DD15AF87C0C40F480104AF87C0CAF
:100C900006E0201D012101F055F8002818BF054687
:100CA0006078400611D5DAF80000216D20F0405040
:100CB0000843B1F1805FCAF8000006D1201D02216F
:100CC00001F040F8002818BF05466078000607D5F7
:100CD000DAF80000616D20F080400843CAF8000097
:100CE000284602B0BDE8F0872DE9F04381B0002826
:100CF00000F0918042F20008C4F202080446D8F8DD
:100D000000000D4600F0070088420CD2D8F8000021
:100D100020F007002843C8F80000D8F8000000F0D1
:100D20000700A84277D1206841F208098107C4F280
:100D300002090DD5A168D9F8002002F0F002914215
:100D400006D9D9F8002022F0F0021143C9F80010AA
:100D5000C00756D1206881070DD5A168D9F80020B9
:100D600002F0F002914206D2D9F8002022F0F002FF
:100D70001143C9F80010D8F8001001F00701A9428A
:100D80000CD9D8F8001021F007012943C8F8001049
:100D9000D8F8001001F00701A9423CD1410707D55E
:100DA000D9F80010E26821F4E0611143C9F800109D
:100DB000000708D5D9F80000216920F4605040EA06
:100DC000C100C9F8000000F0A7F8D9F8001042F2FD
:100DD0000862C1F30311C0F60002515C40F2000248
:100DE00001F01F0120FA01F140F20800C2F20000F8
:100DF0000068C2F200021160FFF76EFC01B0BDE8AE
:100E0000F083606858B102282CD003282FD159F8FC
:100E1000081C890107D4012001B0BDE8F08359F80E
:100E2000081C8907F7D5D9F8001021F00301084301
:100E3000C9F80000FFF71EFB064641F2883700BFE5
:100E4000D9F80000616800F00C00B0EB810F3FF4AE
:100E500081AFFFF70FFB801BB842F1D9032001B02F
:100E6000BDE8F08359F8081C8903D4D5DBE759F8AD
:100E7000081C4905CFD5D6E70F22026041F20802CF
:100E8000C4F20202136803F003034360136803F023
:100E9000F0038360136803F4E063C36012684FF4E7
:100EA000E06303EAD202026142F20000C4F20200EF
:100EB000006800F0070008607047000040F2000082
:100EC000C2F200000068704780B5FFF7F7FF41F2FB
:100ED0000801C4F20201096842F21862C1F302215A
:100EE000C0F60002515C01F01F01C84080BD000047
:100EF00080B5FFF7E3FF41F20801C4F2020109687F
:100F000042F21862C1F3C221C0F60002515C01F046
:100F10001F01C84080BD000041F20C01C4F2020173
:100F200051F8040C10F00C02086805D00C2A40D1CE
:100F300000F0030001283CD151F80C0C000703D449
:100F4000D1F88800000A02E051F80C0C000942F2C6
:100F5000206300F00F00C0F6000353F82030002A91
:100F6000184618BF00200C2A18BF7047086800F008
:100F70000300022806D0032804BF41F20023C0F278
:100F80007A0303E042F20043C0F2F40308680A68FF
:100F9000C0F30210C2F30622096801305A43B2FBC3
:100FA000F0F0C1F34161022202EB4101B0FBF1F02C
:100FB0007047042A07D0082A0BD141F200200023F1
:100FC000C0F27A00CFE742F200400023C0F2F40002
:100FD000C9E700200023C6E72DE9F04381B00028CF
:100FE00000F0428241F200060446C4F20206B068F4
:100FF000F168227800F00C08D00601F003071CD439
:101000002078C00700F0ED80B8F1080F43D0B8F1A8
:101010000C0F08BF032F3ED06568B5F5A02F00F078
:10102000BB80B5F5803F00F0BB80306820F4803095
:101030003060306820F48020B5E0B8F1000F1BD09C
:10104000B8F10C0F08BF012F16D0A1693068002934
:1010500078D040F001003060FFF70CFA054600BF81
:101060003068800700F18080FFF704FA401B0228F7
:101070004FF00300F4D954E23068800703D5A0692B
:10108000002800F0F181206A316809070CD4D6F8F5
:101090009410090909E03068800340F1A28060687B
:1010A000002840F09E80DFE1316801F0F0018842C5
:1010B00016D900F0F3FE002840F0D681306840F0E9
:1010C000080030603068D4E9072120F0F0000843C0
:1010D0003060706820F47F4040EA0220706013E0C6
:1010E0003168B8F1000F41F008013160316821F03A
:1010F000F00141EA000131607168E26921F47F4149
:1011000041EA0221716041D0FFF706FFB16842F267
:101110000862C1F30311C0F60002515C40F2000204
:1011200001F01F0120FA01F140F20800C2F20000B4
:101130000068C2F200021160FFF7CEFA002840F00A
:10114000F0815DE720F001003060FFF793F905467C
:10115000306880077FF554AFFFF78CF9401B0228F9
:101160004FF00300F4D9DCE1306840F00800306053
:101170003068D4E9072120F0F0000843306070683F
:1011800020F47F4040EA0220706039E700F086FEDC
:10119000002840F06981B7E7306840F48020306073
:1011A000306840F480303060FFF764F9002D054668
:1011B00014D000BF3068800313D4FFF75BF9401BE5
:1011C00064284FF00300F5D9ABE100BFFFF752F9F7
:1011D000401B64284FF0030000F2A38130688003B5
:1011E000F4D4207880072CD5B8F1040F1BD0B8F1C7
:1011F0000C0F08BF022F16D0E1683068002900F0FC
:101200007F8140F480703060FFF734F9054600BFFD
:10121000306840050ED4FFF72DF9401B02284FF02F
:101220000300F5D97DE13068400503D5E06800286A
:1012300000F01A817068216920F0F85040EA0160DE
:1012400070602078000760D42078400777D4207839
:10125000800600F1AC80A06A002800F062810228BC
:1012600040F0D380F068E16A00F003028A4240F067
:10127000E380226B6FF00F0300F0700103EB0212AA
:10128000914240F0D980616B00F4FE42B2EB012F35
:1012900040F0D280A16B00F07842B2EBC16F40F019
:1012A000CB80E26B0023CFF6E07303EB025200F435
:1012B000C0016FF31402914240F0BE80216C4FF0E8
:1012C0007E4202EB016100F0C06001F07E41884285
:1012D00040F0B2803068800100F12D81306840F02C
:1012E00080703060F06840F08070F060FFF7C2F806
:1012F00004463068800100F11E81FFF7BBF8001B37
:1013000002284FF00300F4D90BE16169D6F894008C
:10131000002966D040F00100C6F89400FFF7AAF853
:10132000054600BFD6F8940080078DD4FFF7A2F8D9
:10133000401B0228F6D9032001B0BDE8F083B06D50
:1013400010F0805908D1B06D40F08050B065B06D9C
:1013500000F080500090009847F20007C4F20007A8
:101360003868C00511D4386840F480703860FFF7E1
:1013700081F805463868C00507D4FFF77BF8401BA5
:1013800002284FF00300F5D9CBE0A568052D00F049
:101390008480012D00F08780D6F8900020F00100B5
:1013A000C6F89000D6F8900020F004007FE0616A53
:1013B000D6F8980000295BD040F00100C6F89800EC
:1013C000FFF758F8054600BFD6F8980080073FF5AC
:1013D00042AFFFF74FF8401B02284FF00300F3D94C
:1013E0009FE020F00100C6F89400FFF743F805469F
:1013F000D6F8940080077FF527AFFFF73BF8401B36
:1014000002284FF00300F3D98BE0B8F10C0F2BD07A
:10141000306820F080703060FFF72CF8044600BF81
:101420003068800140F18080FFF724F8001B02281B
:101430004FF00300F4D974E0B8F10C0F14D0306809
:10144000400111D4306820F080703060FFF712F84E
:1014500005463068800172D5FFF70CF8401B022862
:101460004FF00300F5D95CE0012001B0BDE8F08346
:1014700020F00100C6F89800FEF7FCFF054600BF0B
:10148000D6F8980080077FF5E6AEFEF7F3FF401B25
:1014900002284FF00300F3D943E0D6F8900040F063
:1014A0000400C6F89000D6F8900040F00100C6F89D
:1014B0009000FEF7DFFF002D054641F2883712D07D
:1014C000D6F89000800712D4FEF7D4FF401BB84234
:1014D0004FF00300F4D924E0FEF7CCFF401BB842E4
:1014E0004FF003001DD8D6F890008007F4D4B9F16E
:1014F000000F7FF4ACAEB06D20F08050B065A6E672
:1015000020F480703060FEF7B5FF05463068400576
:101510007FF597AEFEF7AEFF401B02284FF00300A9
:10152000F4D901B0BDE8F083F0684FF6FC71CFF656
:10153000EE610840F060002001B0BDE8F083F06883
:1015400048F28C01C0F29D1104F12C0700EA010C55
:101550008ECF6FF00F00D4E90F5400EB0210002281
:10156000CFF6E07241EA0C0102EB055208436FF33B
:1015700014024FF07E4540EA032005EB046510435A
:1015800005F07E4540EAC7602843F060306840F0CF
:1015900080703060F06840F08070F060FEF76AFFA5
:1015A000044630688001C6D4FEF764FF001B0228A1
:1015B0004FF00300F5D9B4E7002804BF01207047BD
:1015C000B0B50446406A20B10020206104F1140047
:1015D00005E06068B0F5827F03D004F11C000021B3
:1015E00001600025A562206E18B92046E56500F06F
:1015F0004DF8022020662068D4F80CE00268BEF5A1
:10160000E06F22F0400202604EF4006298BF0125B4
:10161000B2F5706F1CBF0023A3624FEA053CD4E90A
:101620000135D4E9042103F4827305F404452B4405
:1016300002F002021A44A36901F00101E5691144B4
:1016400003F40072114405F03802256A114405F0D4
:101650008002A56A114405F400521143016004217F
:10166000626A0EF4706501EA1341636B45EA0C058A
:1016700002F01002294303F00803114319434160AB
:101680000020012160662166B0BD000080B586B0F3
:10169000006843F20002C4F2010200219042CDE949
:1016A0000411CDE90211019101D006B080BD41F2D3
:1016B0004C00C4F20200426942F480524261426925
:1016C00002F480520092009A026842F00202026024
:1016D000006800F00200009000983820019002207D
:1016E000CDE90201032004900520059040F200405E
:1016F000C4F6000001A9FEF7E5FD06B080BD0000BC
:10170000704700007047000070470000002804BFC9
:101710000120704710B50446006C20B90020E0633A
:10172000204600F015F8022020642068211D00F0FA
:1017300049FC0120E0666064A064E06420656065A7
:10174000A065E06520666066A0662064002010BD8C
:1017500070470000016C01291CBF01207047022165
:1017600001640168C868B1F1804F40F00100C860B1
:101770000BD044F20000C4F20100814205D042F6D1
:101780000040C4F20100814212D188680722C0F2F1
:1017900001020240062A4FF000000ED0B2F5803F51
:1017A00008BF7047086840F00100086000207047DB
:1017B000086840F001000860002070477047000092
:1017C000F0B581B004460068C768066906EA0705F7
:1017D000A90727D4680756D428076CD4E80600F177
:1017E0008280E80706D020686FF001010161204681
:1017F00000F098F817F0800718BF16F4025006D0D2
:1018000020686FF4025101612046FFF77BFF002F33
:1018100018BF16F4807011D1680618D4A8061FD41A
:1018200001B0F0BD6FF0020101610121E161806949
:1018300080071ED02046FFF7C1FF20E020686FF42C
:10184000807101612046FFF75BFF6806E6D52068DE
:101850006FF040010161204600F070F8A806DFD566
:1018600020686FF0200101612046FFF74DFF01B0B5
:10187000F0BD204600F052F8204600F051F800205C
:10188000E0616807A8D520686FF0040101610221BA
:10189000E161806910F4407F03D02046FFF78EFF9E
:1018A00005E0204600F03AF8204600F039F8002024
:1018B000E061280792D520686FF0080101610421DA
:1018C000E161C069800703D02046FFF777FF05E09C
:1018D000204600F023F8204600F022F80020E061C6
:1018E000E8067FF57EAF20686FF0100101610821E6
:1018F000E161C06910F4407F03D02046FFF75EFF2E
:1019000005E0204600F00AF8204600F009F8002023
:10191000E061E8077FF467AF6CE700007047000004
:101920007047000080B5006841F20001C4F2000178
:10193000884208BFFEF7B2FE80BD0000704700007D
:1019400010B5C0B10446C06F20B90020A067204682
:1019500000F024F82420E0672068616A026822F021
:101960000102026011B1204600F074FB204600F035
:101970006FFC012801D1012010BD2068416821F4CD
:1019800090414160816821F02A018160016841F045
:1019900001010160204600F0D1FB10BDB0B59EB042
:1019A0000446002502A85C211D95CDE91B55CDE913
:1019B0001955FEF742FC206844F60001C4F200010C
:1019C000884201D01EB0B0BD0420029002A80C9540
:1019D000FFF702F8002818BFFEF770FC41F24C0038
:1019E000C4F20200C16841F48021C160C16801F401
:1019F000802101910199016841F0040101600068B2
:101A000019A900F0040001900198302019900220DB
:101A10001A9000201B9003201C9007201D9040F678
:101A20000000C4F60000FEF74DFC1EB0B0BD000083
:101A3000FEE700002DE9F04786B0002741F24C0098
:101A40000597CDE90377CDE90177C4F2020001687B
:101A500040F2004A41F0040101600168C4F6000A46
:101A600001F00401009100990168002241F0800119
:101A7000016001684FF4806801F0800100910099D5
:101A8000016841F001010160016801F0010100916C
:101A90000099016841F002010160016801F0020152
:101AA00000910099016841F00801016000684FF45D
:101AB000806100F00800009000985046FEF7D4FCCA
:101AC0000AF500642046042100224FF00409FEF7C5
:101AD000CBFC01AE01254FF090403146CDE90157D6
:101AE0000395FEF7EFFB50463146CDE90185CDE980
:101AF0000377FEF7E7FB20463146CDE90195CDE9B6
:101B00000377FEF7DFFB06B0BDE8F08780B540F253
:101B1000100045F20041C2F20000C4F2000149F693
:101B2000E4420023C1F2D1024FF0010C80E80E1014
:101B3000C0E90433C0E906330362FEF7E1FC002884
:101B400018BFFEF7BBFB40F21000C2F200000021FC
:101B5000FEF796FC002818BFFEF7B0FB40F210001D
:101B6000C2F200000021FEF7ABFC002818BFFEF710
:101B7000A5FB80BD80B540F26C0045F60001C2F2C5
:101B80000000C4F2000149F6E4420023C1F2D10290
:101B90004FF0010C80E80E10C0E90433C0E90633B1
:101BA0000362FEF7ADFC002818BFFEF787FB40F28A
:101BB0006C00C2F200000021FEF762FC002818BF92
:101BC000FEF77CFB40F26C00C2F200000021FEF741
:101BD00077FC002818BFFEF771FB80BDB0B540F25E
:101BE000C80041F20001C2F20000CAF200014FF445
:101BF00040740025022204234FF0100C4FF0160E03
:101C000080E80E50C0E90545C0E90755FEF732FEF1
:101C1000002818BFFEF752FBB0BD000010B540F21F
:101C2000181043F20001C2F20000C4F201014FF4A7
:101C3000827200234FF4E06C4FF4007E082480E8A9
:101C40000E100721C0E90433C0E906E4C0E90833F7
:101C5000C0E90A31C0E90C34FFF7AEFC002818BF18
:101C6000FEF72CFB10BD000080B540F2F01044F6EA
:101C70000001C2F20000C4F2000100234FF00C0C7E
:101C80004FF4E13280E80E00C0E90333C0E905C338
:101C9000C0E907334362FFF753FE002818BFFEF781
:101CA0000DFB80BDFEE70000FEE7000000F007002E
:101CB00080F00703042B28BF04234FF0FF3C0338B8
:101CC0000CFA03F338BF0020994381400CFA00F06E
:101CD00022EA000008437047704700002DE9F043F6
:101CE00081B0044600688068084018BF0120904217
:101CF00003D1002001B0BDE8F083DDF82080154657
:101D00000E46994608F1010707E000BF2068806889
:101D1000304018BF0120A842EBD0002FF6D0FEF7CC
:101D2000A9FBB8F1000F03D0A0EB09004045EDD9A5
:101D300004206064A06C40F00100A064012001B0A8
:101D4000BDE8F0832DE9F04141F20007C4F202073B
:101D5000FA6888469107044613D0F868216800F0B5
:101D6000030088424FF001003DD1E1B3F86861689B
:101D7000C0F30210013088421CBF0120BDE8F08191
:101D80001EE02068012806D0032806D002283FD193
:101D90004FF4806106E0022104E03968890304D42D
:101DA0004FF480213A680A4232D0F968626821F023
:101DB00073016FF00F0303EB021208431043F86046
:101DC000386820F080603860FEF754FB064600BF9C
:101DD000386810F0006508D0FEF74CFB801B032824
:101DE000F6D3032025B1BDE8F0810020002DFAD103
:101DF000B8F1010F0FD0B8F1000F1ED1386948F2C9
:101E0000FF01C0F2FF710140D4E90220C00622E0C8
:101E10000120BDE8F08148F2FF013869CFF6FF11DB
:101E200001F1B461014020690023CFF6E073A2689C
:101E300003EB00506FF314000DE0386948F2FF0126
:101E4000CFF6FF11014060694FF07E43A26803EBBB
:101E5000006000F07E4041EA0221084338613868A2
:101E600040F080603860FEF705FB0546386810F0EA
:101E7000006606D1FEF7FEFA401B0328F6D30320C6
:101E800000E00020002E08BFBDE8F081A06939699C
:101E9000084338610020BDE8F0810000B0B582B091
:101EA00041F25805C4F2020529680446C90015D458
:101EB000286840F080502860286800F08050019029
:101EC0000198FEF7CFFC296821F080512960B0F518
:101ED000007F08D0802C0DD9032015E0FEF7C2FC4E
:101EE000B0F5007FF6D1812C0DD30120A02C88BF46
:101EF000022009E0A4F17000B0FA80F04009802CC3
:101F000008BF022000E0002042F20001C4F20201FA
:101F10000A6822F0070202440A60096801F007011A
:101F2000081A18BF012002B0B0BD000070470000C1
:101F30007047000010B596B005A84421FEF77DF962
:101F400000200490CDE90200CDE900004FF40070BC
:101F5000FEF74CFC10BB0120032405904FF48031A8
:101F6000CDE9104014200691022112900720CDE9FE
:101F7000130105A80F911591FFF72EF870B90F20E6
:101F8000CDE900040020CDE9020004906846042158
:101F9000FEF7AAFE002804BF16B010BDFEF78EF9AA
:101FA0004EF68850CEF20000016841F470010160E5
:101FB0007047000080B540F28010C2F20000FFF7C9
:101FC000FFFB80BDB0B542F6004E0268C4F2010EC0
:101FD000704502D0B0F1804F03D14B6822F07002FF
:101FE0001A4343F6FF73C4F2010344F2004C9842D3
:101FF000C4F2010C05DCB0F1804F0AD0704508D066
:102000000BE0604505D044F20003C4F2010398429E
:1020100003D1CB6822F440721A430C688D684B6977
:102020007045C562846218BF60450CD109690163BF
:1020300022F080010268194342F00402026001228A
:1020400042610160B0BD44F20005C4F20105A8423E
:10205000EED1EBE780B5416A0A070CD4CA0715D167
:102060008A071ED44A0727D4CA0630D48A0639D430
:102070004A0657D541E00268D0F834C0536823F4CB
:10208000004343EA0C035360CA07E9D00268D0F862
:1020900028C0536823F4003343EA0C0353608A07D3
:1020A000E0D50268D0F82CC0536823F4803343EAAB
:1020B0000C0353604A07D7D50268D0F830C0536884
:1020C00023F4802343EA0C035360CA06CED502688A
:1020D000D0F838C0936823F4805343EA0C0393602C
:1020E0008A06C5D50268D0F83CC0936823F4005333
:1020F00043EA0C0393604A0614D50268D0F840C046
:102100005368BCF5801F23F4801343EA0C0353602B
:1021100008D1D2F804C0D0F844E02CF4C00343EA5C
:102120000E035360090658BF80BD0168806C4A6881
:1021300022F400221043486080BD0000B0B582B098
:1021400004460020C4F88400FEF794F9216805468F
:10215000096809071AD56FF07E4C20464FF400112C
:1021600000222B46CDF800C000F092F970B100BFFC
:10217000206850E8000F216820F0800041E800024C
:10218000002AF5D12020E067032031E020680068B4
:10219000400726D56FF07E4C20464FF48001002288
:1021A0002B46CDF800C000F073F9D0B1206850E89C
:1021B000000F216820F4907041E80002002AF5D158
:1021C0002068083050E8000F216820F00100083135
:1021D00041E80002002AF3D12020C4F88000032047
:1021E00006E02020E067C4F88000002020666066DA
:1021F0000021A16702B0B0BD016851E8001F02686C
:1022000021F4907142E80013002BF5D101680831E8
:1022100051E8001F026821F00101083242E8001372
:10222000002BF3D1016E01290AD100BF016851E8EA
:10223000001F026821F0100142E80013002BF5D1C5
:102240002021C0F8801000210166816670470000DF
:1022500070B504462269D4E90213006866690A432E
:10226000E1693243066846F6F315CEF6FF750A4378
:102270002E4032430260426822F440521A434260C8
:1022800048F20002A369C4F2000290421CBF266A11
:102290003343866826F430663343836047F6FF7322
:1022A000C4F2000398424FF0100312DC44F20046DF
:1022B000C4F20006B0421BD044F60006C4F2000689
:1022C000B04227D141F28803C4F202031B681B0904
:1022D0001BE0904213D043F60006C4F20106B04260
:1022E00018D141F28803C4F202031B6864A60DE012
:1022F00041F28803C4F202031B689B0805E041F227
:102300008803C4F202031B689B0A59A603F0030367
:1023100056F82330904242F20040C0F2F40011D04F
:10232000B1F5004F1DD1082B00F25C800025DFE8DD
:1023300003F0055563595C59595960000025FEF7B3
:10234000C3FD59E0082B1AD80026DFE803F0051872
:102350001F181C1818183E000026FEF7B5FDB0B96E
:1023600038E0082B64D80025DFE803F0055E6C62D6
:102370006562626269000025FEF7A6FD62E000204A
:10238000012620B926E00026FEF7C6FD10B36268DC
:10239000012502EB4201884265D31103884262D8CD
:1023A000010E000210EB520041F100010023FDF785
:1023B00009FF4FF6FF42A0F54071C0F20F029142B3
:1023C0000AD821683546C8604DE04FF40040002629
:1023D0000028DCD1354646E0012544E00025FEF723
:1023E00087FD09E00020012506E00025FEF794FDA9
:1023F00002E04FF400400025A8B361684A0802EBF0
:102400004000B0FBF1F04FF6EF72A0F110019142E5
:1024100008D84FF6F0710140C0F34200226808442A
:10242000D06020E001251EE00025FEF761FD09E0F7
:102430000020012506E00025FEF76EFD02E04FF4C6
:102440000040002578B161684FF6EF7200EB510053
:10245000B0FBF1F0A0F11001914203D8216880B2E5
:10246000C86000E0012500212846A166E16670BD34
:10247000000000000400000002000000080000004E
:10248000010000000400000002000000080000003D
:102490002DE9F04381B004460068C0690840401A45
:1024A000B0FA80F0400990423CD1DDF8208015461A
:1024B0000E46994608F1010709E000BF2068C0698F
:1024C0003040801BB0FA80F04009A8422ED1002F86
:1024D000F4D0FDF7CFFF0146B8F1000F4FF0030035
:1024E00025D0A1EB0901414521D8206801684907A1
:1024F000E4D5402EE2D0802EE0D0C169090719D47E
:10250000C1690905DAD54FF4006101622046FFF781
:1025100073FE2020C4F884000020A067032001B0CF
:10252000BDE8F083002001B0BDE8F083002001B0D9
:10253000BDE8F083082505622046FFF75DFE002018
:10254000C4F88450A067012001B0BDE8F08300000A
:10255000FEE70000002848BF704700F01F0101227D
:1025600002FA01F14EF200124009CEF2000242F8E6
:10257000201070474EF60C50CEF200000068C0F3F9
:10258000022070474EF6145300F00F02CEF2000303
:1025900009011A4400F16043B0F1FF3FC8BF03F5E1
:1025A00064421170704700004EF60C51CEF20001EB
:1025B0000A684FF6FF031A4060F30A2242F0806077
:1025C00040F0FD7008607047FEF776F8FFF7B2FC48
:1025D000FFF730FAFFF748FBFFF798FAFFF7CAFA60
:1025E000FFF7FCFAFFF71AFBFEE702E008C8121F2C
:1025F00008C1002AFAD170477047002001E001C1EC
:10260000121F002AFBD170470000000000000000EC
:102610000102030406070809000000000102030488
:10262000A0860100400D0300801A060000350C0052
:1026300040420F0080841E0000093D0000127A0015
:102640000024F40000366E010048E801006CDC0252
:10265000702600080000002010000000EA25000895
:102660008026000810000020700A0000FA250008EB
:1026700000093D0001000000100000000000000003
:040000050800018D61
:00000001FF
